{
  "_format": "hh-sol-artifact-1",
  "contractName": "CompanyRating",
  "sourceName": "contracts/CompanyRating.sol",
  "abi": [
    {
      "inputs": [
        {
          "internalType": "string",
          "name": "company1",
          "type": "string"
        },
        {
          "internalType": "string",
          "name": "company2",
          "type": "string"
        },
        {
          "internalType": "string",
          "name": "company3",
          "type": "string"
        }
      ],
      "stateMutability": "nonpayable",
      "type": "constructor"
    },
    {
      "anonymous": false,
      "inputs": [
        {
          "indexed": false,
          "internalType": "uint256",
          "name": "companyId",
          "type": "uint256"
        },
        {
          "indexed": false,
          "internalType": "bool",
          "name": "isUpvote",
          "type": "bool"
        }
      ],
      "name": "CompanyRated",
      "type": "event"
    },
    {
      "inputs": [
        {
          "internalType": "string",
          "name": "_name",
          "type": "string"
        }
      ],
      "name": "addCompany",
      "outputs": [],
      "stateMutability": "nonpayable",
      "type": "function"
    },
    {
      "inputs": [
        {
          "internalType": "uint256",
          "name": "",
          "type": "uint256"
        }
      ],
      "name": "companies",
      "outputs": [
        {
          "internalType": "string",
          "name": "name",
          "type": "string"
        },
        {
          "internalType": "uint256",
          "name": "upvotes",
          "type": "uint256"
        },
        {
          "internalType": "uint256",
          "name": "downvotes",
          "type": "uint256"
        }
      ],
      "stateMutability": "view",
      "type": "function"
    },
    {
      "inputs": [
        {
          "internalType": "uint256",
          "name": "companyId",
          "type": "uint256"
        }
      ],
      "name": "getCompany",
      "outputs": [
        {
          "internalType": "string",
          "name": "",
          "type": "string"
        },
        {
          "internalType": "uint256",
          "name": "",
          "type": "uint256"
        },
        {
          "internalType": "uint256",
          "name": "",
          "type": "uint256"
        }
      ],
      "stateMutability": "view",
      "type": "function"
    },
    {
      "inputs": [
        {
          "internalType": "uint256",
          "name": "companyId",
          "type": "uint256"
        },
        {
          "internalType": "bool",
          "name": "isUpvote",
          "type": "bool"
        }
      ],
      "name": "rateCompany",
      "outputs": [],
      "stateMutability": "nonpayable",
      "type": "function"
    }
  ],
  "bytecode": "0x608060405234801561001057600080fd5b50604051611861380380611861833981810160405281019061003291906103c6565b60405161003e90610244565b604051809103906000f08015801561005a573d6000803e3d6000fd5b506000806101000a81548173ffffffffffffffffffffffffffffffffffffffff021916908373ffffffffffffffffffffffffffffffffffffffff1602179055506100a9836100cf60201b60201c565b6100b8826100cf60201b60201c565b6100c7816100cf60201b60201c565b5050506107b9565b60008060009054906101000a900473ffffffffffffffffffffffffffffffffffffffff1673ffffffffffffffffffffffffffffffffffffffff16639fa6a6e36040518163ffffffff1660e01b8152600401602060405180830381865afa15801561013d573d6000803e3d6000fd5b505050506040513d601f19601f8201168201806040525081019061016191906104a3565b905060405180606001604052808381526020016000815260200160008152506001600083815260200190815260200160002060008201518160000190816101a891906106e7565b50602082015181600101556040820151816002015590505060008054906101000a900473ffffffffffffffffffffffffffffffffffffffff1673ffffffffffffffffffffffffffffffffffffffff1663d09de08a6040518163ffffffff1660e01b8152600401600060405180830381600087803b15801561022857600080fd5b505af115801561023c573d6000803e3d6000fd5b505050505050565b61029f806115c283390190565b6000604051905090565b600080fd5b600080fd5b600080fd5b600080fd5b6000601f19601f8301169050919050565b7f4e487b7100000000000000000000000000000000000000000000000000000000600052604160045260246000fd5b6102b88261026f565b810181811067ffffffffffffffff821117156102d7576102d6610280565b5b80604052505050565b60006102ea610251565b90506102f682826102af565b919050565b600067ffffffffffffffff82111561031657610315610280565b5b61031f8261026f565b9050602081019050919050565b60005b8381101561034a57808201518184015260208101905061032f565b60008484015250505050565b6000610369610364846102fb565b6102e0565b9050828152602081018484840111156103855761038461026a565b5b61039084828561032c565b509392505050565b600082601f8301126103ad576103ac610265565b5b81516103bd848260208601610356565b91505092915050565b6000806000606084860312156103df576103de61025b565b5b600084015167ffffffffffffffff8111156103fd576103fc610260565b5b61040986828701610398565b935050602084015167ffffffffffffffff81111561042a57610429610260565b5b61043686828701610398565b925050604084015167ffffffffffffffff81111561045757610456610260565b5b61046386828701610398565b9150509250925092565b6000819050919050565b6104808161046d565b811461048b57600080fd5b50565b60008151905061049d81610477565b92915050565b6000602082840312156104b9576104b861025b565b5b60006104c78482850161048e565b91505092915050565b600081519050919050565b7f4e487b7100000000000000000000000000000000000000000000000000000000600052602260045260246000fd5b6000600282049050600182168061052257607f821691505b602082108103610535576105346104db565b5b50919050565b60008190508160005260206000209050919050565b60006020601f8301049050919050565b600082821b905092915050565b60006008830261059d7fffffffffffffffffffffffffffffffffffffffffffffffffffffffffffffffff82610560565b6105a78683610560565b95508019841693508086168417925050509392505050565b6000819050919050565b60006105e46105df6105da8461046d565b6105bf565b61046d565b9050919050565b6000819050919050565b6105fe836105c9565b61061261060a826105eb565b84845461056d565b825550505050565b600090565b61062761061a565b6106328184846105f5565b505050565b5b818110156106565761064b60008261061f565b600181019050610638565b5050565b601f82111561069b5761066c8161053b565b61067584610550565b81016020851015610684578190505b61069861069085610550565b830182610637565b50505b505050565b600082821c905092915050565b60006106be600019846008026106a0565b1980831691505092915050565b60006106d783836106ad565b9150826002028217905092915050565b6106f0826104d0565b67ffffffffffffffff81111561070957610708610280565b5b610713825461050a565b61071e82828561065a565b600060209050601f831160018114610751576000841561073f578287015190505b61074985826106cb565b8655506107b1565b601f19841661075f8661053b565b60005b8281101561078757848901518255600182019150602085019450602081019050610762565b868310156107a457848901516107a0601f8916826106ad565b8355505b6001600288020188555050505b505050505050565b610dfa806107c86000396000f3fe608060405234801561001057600080fd5b506004361061004c5760003560e01c80632813d19d1461005157806357d1391714610083578063d560d146146100b5578063d6483d17146100d1575b600080fd5b61006b60048036038101906100669190610689565b6100ed565b60405161007a93929190610755565b60405180910390f35b61009d60048036038101906100989190610689565b61019f565b6040516100ac93929190610755565b60405180910390f35b6100cf60048036038101906100ca91906107cb565b610359565b005b6100eb60048036038101906100e69190610940565b6104ca565b005b6001602052806000526040600020600091509050806000018054610110906109b8565b80601f016020809104026020016040519081016040528092919081815260200182805461013c906109b8565b80156101895780601f1061015e57610100808354040283529160200191610189565b820191906000526020600020905b81548152906001019060200180831161016c57829003601f168201915b5050505050908060010154908060020154905083565b606060008060008054906101000a900473ffffffffffffffffffffffffffffffffffffffff1673ffffffffffffffffffffffffffffffffffffffff16639fa6a6e36040518163ffffffff1660e01b8152600401602060405180830381865afa15801561020f573d6000803e3d6000fd5b505050506040513d601f19601f8201168201806040525081019061023391906109fe565b8410610274576040517f08c379a000000000000000000000000000000000000000000000000000000000815260040161026b90610a77565b60405180910390fd5b6000600160008681526020019081526020016000206040518060600160405290816000820180546102a4906109b8565b80601f01602080910402602001604051908101604052809291908181526020018280546102d0906109b8565b801561031d5780601f106102f25761010080835404028352916020019161031d565b820191906000526020600020905b81548152906001019060200180831161030057829003601f168201915b50505050508152602001600182015481526020016002820154815250509050806000015181602001518260400151935093509350509193909250565b60008054906101000a900473ffffffffffffffffffffffffffffffffffffffff1673ffffffffffffffffffffffffffffffffffffffff16639fa6a6e36040518163ffffffff1660e01b8152600401602060405180830381865afa1580156103c4573d6000803e3d6000fd5b505050506040513d601f19601f820116820180604052508101906103e891906109fe565b8210610429576040517f08c379a000000000000000000000000000000000000000000000000000000000815260040161042090610a77565b60405180910390fd5b80156104605760016000838152602001908152602001600020600101600081548092919061045690610ac6565b919050555061048d565b60016000838152602001908152602001600020600201600081548092919061048790610ac6565b91905055505b7f49229ce3e0401431f6b6bb739842928d53bf497cf23dc8e5189f39c68648bf4482826040516104be929190610b1d565b60405180910390a15050565b60008060009054906101000a900473ffffffffffffffffffffffffffffffffffffffff1673ffffffffffffffffffffffffffffffffffffffff16639fa6a6e36040518163ffffffff1660e01b8152600401602060405180830381865afa158015610538573d6000803e3d6000fd5b505050506040513d601f19601f8201168201806040525081019061055c91906109fe565b905060405180606001604052808381526020016000815260200160008152506001600083815260200190815260200160002060008201518160000190816105a39190610cf2565b50602082015181600101556040820151816002015590505060008054906101000a900473ffffffffffffffffffffffffffffffffffffffff1673ffffffffffffffffffffffffffffffffffffffff1663d09de08a6040518163ffffffff1660e01b8152600401600060405180830381600087803b15801561062357600080fd5b505af1158015610637573d6000803e3d6000fd5b505050505050565b6000604051905090565b600080fd5b600080fd5b6000819050919050565b61066681610653565b811461067157600080fd5b50565b6000813590506106838161065d565b92915050565b60006020828403121561069f5761069e610649565b5b60006106ad84828501610674565b91505092915050565b600081519050919050565b600082825260208201905092915050565b60005b838110156106f05780820151818401526020810190506106d5565b60008484015250505050565b6000601f19601f8301169050919050565b6000610718826106b6565b61072281856106c1565b93506107328185602086016106d2565b61073b816106fc565b840191505092915050565b61074f81610653565b82525050565b6000606082019050818103600083015261076f818661070d565b905061077e6020830185610746565b61078b6040830184610746565b949350505050565b60008115159050919050565b6107a881610793565b81146107b357600080fd5b50565b6000813590506107c58161079f565b92915050565b600080604083850312156107e2576107e1610649565b5b60006107f085828601610674565b9250506020610801858286016107b6565b9150509250929050565b600080fd5b600080fd5b7f4e487b7100000000000000000000000000000000000000000000000000000000600052604160045260246000fd5b61084d826106fc565b810181811067ffffffffffffffff8211171561086c5761086b610815565b5b80604052505050565b600061087f61063f565b905061088b8282610844565b919050565b600067ffffffffffffffff8211156108ab576108aa610815565b5b6108b4826106fc565b9050602081019050919050565b82818337600083830152505050565b60006108e36108de84610890565b610875565b9050828152602081018484840111156108ff576108fe610810565b5b61090a8482856108c1565b509392505050565b600082601f8301126109275761092661080b565b5b81356109378482602086016108d0565b91505092915050565b60006020828403121561095657610955610649565b5b600082013567ffffffffffffffff8111156109745761097361064e565b5b61098084828501610912565b91505092915050565b7f4e487b7100000000000000000000000000000000000000000000000000000000600052602260045260246000fd5b600060028204905060018216806109d057607f821691505b6020821081036109e3576109e2610989565b5b50919050565b6000815190506109f88161065d565b92915050565b600060208284031215610a1457610a13610649565b5b6000610a22848285016109e9565b91505092915050565b7f436f6d70616e7920646f6573206e6f7420657869737400000000000000000000600082015250565b6000610a616016836106c1565b9150610a6c82610a2b565b602082019050919050565b60006020820190508181036000830152610a9081610a54565b9050919050565b7f4e487b7100000000000000000000000000000000000000000000000000000000600052601160045260246000fd5b6000610ad182610653565b91507fffffffffffffffffffffffffffffffffffffffffffffffffffffffffffffffff8203610b0357610b02610a97565b5b600182019050919050565b610b1781610793565b82525050565b6000604082019050610b326000830185610746565b610b3f6020830184610b0e565b9392505050565b60008190508160005260206000209050919050565b60006020601f8301049050919050565b600082821b905092915050565b600060088302610ba87fffffffffffffffffffffffffffffffffffffffffffffffffffffffffffffffff82610b6b565b610bb28683610b6b565b95508019841693508086168417925050509392505050565b6000819050919050565b6000610bef610bea610be584610653565b610bca565b610653565b9050919050565b6000819050919050565b610c0983610bd4565b610c1d610c1582610bf6565b848454610b78565b825550505050565b600090565b610c32610c25565b610c3d818484610c00565b505050565b5b81811015610c6157610c56600082610c2a565b600181019050610c43565b5050565b601f821115610ca657610c7781610b46565b610c8084610b5b565b81016020851015610c8f578190505b610ca3610c9b85610b5b565b830182610c42565b50505b505050565b600082821c905092915050565b6000610cc960001984600802610cab565b1980831691505092915050565b6000610ce28383610cb8565b9150826002028217905092915050565b610cfb826106b6565b67ffffffffffffffff811115610d1457610d13610815565b5b610d1e82546109b8565b610d29828285610c65565b600060209050601f831160018114610d5c5760008415610d4a578287015190505b610d548582610cd6565b865550610dbc565b601f198416610d6a86610b46565b60005b82811015610d9257848901518255600182019150602085019450602081019050610d6d565b86831015610daf5784890151610dab601f891682610cb8565b8355505b6001600288020188555050505b50505050505056fea26469706673582212209b169667118b393d050b5617825f5f3e8a7a27aee6d81dd4e88b6f9fcbff325f64736f6c634300081b00336080604052348015600f57600080fd5b5060008081905550610279806100266000396000f3fe608060405234801561001057600080fd5b50600436106100415760003560e01c80632baeceb7146100465780639fa6a6e314610050578063d09de08a1461006e575b600080fd5b61004e610078565b005b6100586100d7565b6040516100659190610114565b60405180910390f35b6100766100e0565b005b60008054116100bc576040517f08c379a00000000000000000000000000000000000000000000000000000000081526004016100b39061018c565b60405180910390fd5b60016000808282546100ce91906101db565b92505081905550565b60008054905090565b60016000808282546100f2919061020f565b92505081905550565b6000819050919050565b61010e816100fb565b82525050565b60006020820190506101296000830184610105565b92915050565b600082825260208201905092915050565b7f436f756e7465723a2064656372656d656e74206f766572666c6f770000000000600082015250565b6000610176601b8361012f565b915061018182610140565b602082019050919050565b600060208201905081810360008301526101a581610169565b9050919050565b7f4e487b7100000000000000000000000000000000000000000000000000000000600052601160045260246000fd5b60006101e6826100fb565b91506101f1836100fb565b9250828203905081811115610209576102086101ac565b5b92915050565b600061021a826100fb565b9150610225836100fb565b925082820190508082111561023d5761023c6101ac565b5b9291505056fea2646970667358221220b14bdb88177e10cb829ee8988a001757dafa53874161a2d6e0fcd5a263cbd46364736f6c634300081b0033",
  "linkReferences": {},
  "deployedLinkReferences": {}
}