{
  "_format": "hh-sol-artifact-1",
  "contractName": "UserProfile",
  "sourceName": "contracts/UserProfile.sol",
  "abi": [
    {
      "anonymous": false,
      "inputs": [
        {
          "indexed": true,
          "internalType": "address",
          "name": "walletAddress",
          "type": "address"
        },
        {
          "indexed": false,
          "internalType": "string",
          "name": "username",
          "type": "string"
        }
      ],
      "name": "UserCreated",
      "type": "event"
    },
    {
      "inputs": [
        {
          "internalType": "string",
          "name": "_username",
          "type": "string"
        },
        {
          "internalType": "string",
          "name": "_title",
          "type": "string"
        },
        {
          "internalType": "string",
          "name": "_email",
          "type": "string"
        },
        {
          "internalType": "string[]",
          "name": "_tags",
          "type": "string[]"
        },
        {
          "internalType": "string",
          "name": "_githubLink",
          "type": "string"
        },
        {
          "internalType": "string",
          "name": "_mediumLink",
          "type": "string"
        },
        {
          "internalType": "string",
          "name": "_twitterLink",
          "type": "string"
        },
        {
          "internalType": "string",
          "name": "_telegramLink",
          "type": "string"
        }
      ],
      "name": "createUser",
      "outputs": [],
      "stateMutability": "nonpayable",
      "type": "function"
    },
    {
      "inputs": [
        {
          "internalType": "address",
          "name": "_walletAddress",
          "type": "address"
        }
      ],
      "name": "getUser",
      "outputs": [
        {
          "internalType": "string",
          "name": "username",
          "type": "string"
        },
        {
          "internalType": "string",
          "name": "title",
          "type": "string"
        },
        {
          "internalType": "address",
          "name": "walletAddress",
          "type": "address"
        },
        {
          "internalType": "string",
          "name": "email",
          "type": "string"
        },
        {
          "internalType": "string[]",
          "name": "tags",
          "type": "string[]"
        },
        {
          "internalType": "string",
          "name": "githubLink",
          "type": "string"
        },
        {
          "internalType": "string",
          "name": "mediumLink",
          "type": "string"
        },
        {
          "internalType": "string",
          "name": "twitterLink",
          "type": "string"
        },
        {
          "internalType": "string",
          "name": "telegramLink",
          "type": "string"
        }
      ],
      "stateMutability": "view",
      "type": "function"
    }
  ],
  "bytecode": "0x6080604052348015600f57600080fd5b506114508061001f6000396000f3fe608060405234801561001057600080fd5b50600436106100365760003560e01c80633bdf542f1461003b5780636f77926b14610057575b600080fd5b61005560048036038101906100509190610bfe565b61008f565b005b610071600480360381019061006c9190610df2565b61030d565b60405161008699989796959493929190610fb9565b60405180910390f35b60008060003373ffffffffffffffffffffffffffffffffffffffff1673ffffffffffffffffffffffffffffffffffffffff16815260200190815260200160002060000180546100dd906110ad565b90501461011f576040517f08c379a000000000000000000000000000000000000000000000000000000000815260040161011690611150565b60405180910390fd5b6040518061012001604052808981526020018881526020013373ffffffffffffffffffffffffffffffffffffffff168152602001878152602001868152602001858152602001848152602001838152602001828152506000803373ffffffffffffffffffffffffffffffffffffffff1673ffffffffffffffffffffffffffffffffffffffff16815260200190815260200160002060008201518160000190816101c89190611326565b5060208201518160010190816101de9190611326565b5060408201518160020160006101000a81548173ffffffffffffffffffffffffffffffffffffffff021916908373ffffffffffffffffffffffffffffffffffffffff160217905550606082015181600301908161023b9190611326565b5060808201518160040190805190602001906102589291906108e4565b5060a082015181600501908161026e9190611326565b5060c08201518160060190816102849190611326565b5060e082015181600701908161029a9190611326565b506101008201518160080190816102b19190611326565b509050503373ffffffffffffffffffffffffffffffffffffffff167f9954bce02f72fbdef0fa668ac6f42e434b5829615dac2fb22448054d2359d4f6896040516102fb91906113f8565b60405180910390a25050505050505050565b606080600060608060608060608060008060008c73ffffffffffffffffffffffffffffffffffffffff1673ffffffffffffffffffffffffffffffffffffffff16815260200190815260200160002060405180610120016040529081600082018054610377906110ad565b80601f01602080910402602001604051908101604052809291908181526020018280546103a3906110ad565b80156103f05780601f106103c5576101008083540402835291602001916103f0565b820191906000526020600020905b8154815290600101906020018083116103d357829003601f168201915b50505050508152602001600182018054610409906110ad565b80601f0160208091040260200160405190810160405280929190818152602001828054610435906110ad565b80156104825780601f1061045757610100808354040283529160200191610482565b820191906000526020600020905b81548152906001019060200180831161046557829003601f168201915b505050505081526020016002820160009054906101000a900473ffffffffffffffffffffffffffffffffffffffff1673ffffffffffffffffffffffffffffffffffffffff1673ffffffffffffffffffffffffffffffffffffffff1681526020016003820180546104f1906110ad565b80601f016020809104026020016040519081016040528092919081815260200182805461051d906110ad565b801561056a5780601f1061053f5761010080835404028352916020019161056a565b820191906000526020600020905b81548152906001019060200180831161054d57829003601f168201915b5050505050815260200160048201805480602002602001604051908101604052809291908181526020016000905b828210156106445783829060005260206000200180546105b7906110ad565b80601f01602080910402602001604051908101604052809291908181526020018280546105e3906110ad565b80156106305780601f1061060557610100808354040283529160200191610630565b820191906000526020600020905b81548152906001019060200180831161061357829003601f168201915b505050505081526020019060010190610598565b50505050815260200160058201805461065c906110ad565b80601f0160208091040260200160405190810160405280929190818152602001828054610688906110ad565b80156106d55780601f106106aa576101008083540402835291602001916106d5565b820191906000526020600020905b8154815290600101906020018083116106b857829003601f168201915b505050505081526020016006820180546106ee906110ad565b80601f016020809104026020016040519081016040528092919081815260200182805461071a906110ad565b80156107675780601f1061073c57610100808354040283529160200191610767565b820191906000526020600020905b81548152906001019060200180831161074a57829003601f168201915b50505050508152602001600782018054610780906110ad565b80601f01602080910402602001604051908101604052809291908181526020018280546107ac906110ad565b80156107f95780601f106107ce576101008083540402835291602001916107f9565b820191906000526020600020905b8154815290600101906020018083116107dc57829003601f168201915b50505050508152602001600882018054610812906110ad565b80601f016020809104026020016040519081016040528092919081815260200182805461083e906110ad565b801561088b5780601f106108605761010080835404028352916020019161088b565b820191906000526020600020905b81548152906001019060200180831161086e57829003601f168201915b5050505050815250509050806000015181602001518260400151836060015184608001518560a001518660c001518760e00151886101000151995099509950995099509950995099509950509193959799909294969850565b82805482825590600052602060002090810192821561092c579160200282015b8281111561092b57825182908161091b9190611326565b5091602001919060010190610904565b5b509050610939919061093d565b5090565b5b8082111561095d57600081816109549190610961565b5060010161093e565b5090565b50805461096d906110ad565b6000825580601f1061097f575061099e565b601f01602090049060005260206000209081019061099d91906109a1565b5b50565b5b808211156109ba5760008160009055506001016109a2565b5090565b6000604051905090565b600080fd5b600080fd5b600080fd5b600080fd5b6000601f19601f8301169050919050565b7f4e487b7100000000000000000000000000000000000000000000000000000000600052604160045260246000fd5b610a25826109dc565b810181811067ffffffffffffffff82111715610a4457610a436109ed565b5b80604052505050565b6000610a576109be565b9050610a638282610a1c565b919050565b600067ffffffffffffffff821115610a8357610a826109ed565b5b610a8c826109dc565b9050602081019050919050565b82818337600083830152505050565b6000610abb610ab684610a68565b610a4d565b905082815260208101848484011115610ad757610ad66109d7565b5b610ae2848285610a99565b509392505050565b600082601f830112610aff57610afe6109d2565b5b8135610b0f848260208601610aa8565b91505092915050565b600067ffffffffffffffff821115610b3357610b326109ed565b5b602082029050602081019050919050565b600080fd5b6000610b5c610b5784610b18565b610a4d565b90508083825260208201905060208402830185811115610b7f57610b7e610b44565b5b835b81811015610bc657803567ffffffffffffffff811115610ba457610ba36109d2565b5b808601610bb18982610aea565b85526020850194505050602081019050610b81565b5050509392505050565b600082601f830112610be557610be46109d2565b5b8135610bf5848260208601610b49565b91505092915050565b600080600080600080600080610100898b031215610c1f57610c1e6109c8565b5b600089013567ffffffffffffffff811115610c3d57610c3c6109cd565b5b610c498b828c01610aea565b985050602089013567ffffffffffffffff811115610c6a57610c696109cd565b5b610c768b828c01610aea565b975050604089013567ffffffffffffffff811115610c9757610c966109cd565b5b610ca38b828c01610aea565b965050606089013567ffffffffffffffff811115610cc457610cc36109cd565b5b610cd08b828c01610bd0565b955050608089013567ffffffffffffffff811115610cf157610cf06109cd565b5b610cfd8b828c01610aea565b94505060a089013567ffffffffffffffff811115610d1e57610d1d6109cd565b5b610d2a8b828c01610aea565b93505060c089013567ffffffffffffffff811115610d4b57610d4a6109cd565b5b610d578b828c01610aea565b92505060e089013567ffffffffffffffff811115610d7857610d776109cd565b5b610d848b828c01610aea565b9150509295985092959890939650565b600073ffffffffffffffffffffffffffffffffffffffff82169050919050565b6000610dbf82610d94565b9050919050565b610dcf81610db4565b8114610dda57600080fd5b50565b600081359050610dec81610dc6565b92915050565b600060208284031215610e0857610e076109c8565b5b6000610e1684828501610ddd565b91505092915050565b600081519050919050565b600082825260208201905092915050565b60005b83811015610e59578082015181840152602081019050610e3e565b60008484015250505050565b6000610e7082610e1f565b610e7a8185610e2a565b9350610e8a818560208601610e3b565b610e93816109dc565b840191505092915050565b610ea781610db4565b82525050565b600081519050919050565b600082825260208201905092915050565b6000819050602082019050919050565b600082825260208201905092915050565b6000610ef582610e1f565b610eff8185610ed9565b9350610f0f818560208601610e3b565b610f18816109dc565b840191505092915050565b6000610f2f8383610eea565b905092915050565b6000602082019050919050565b6000610f4f82610ead565b610f598185610eb8565b935083602082028501610f6b85610ec9565b8060005b85811015610fa75784840389528151610f888582610f23565b9450610f9383610f37565b925060208a01995050600181019050610f6f565b50829750879550505050505092915050565b6000610120820190508181036000830152610fd4818c610e65565b90508181036020830152610fe8818b610e65565b9050610ff7604083018a610e9e565b81810360608301526110098189610e65565b9050818103608083015261101d8188610f44565b905081810360a08301526110318187610e65565b905081810360c08301526110458186610e65565b905081810360e08301526110598185610e65565b905081810361010083015261106e8184610e65565b90509a9950505050505050505050565b7f4e487b7100000000000000000000000000000000000000000000000000000000600052602260045260246000fd5b600060028204905060018216806110c557607f821691505b6020821081036110d8576110d761107e565b5b50919050565b7f5573657220616c72656164792065786973747320696e20746865206170706c6960008201527f636174696f6e2e00000000000000000000000000000000000000000000000000602082015250565b600061113a602783610e2a565b9150611145826110de565b604082019050919050565b600060208201905081810360008301526111698161112d565b9050919050565b60008190508160005260206000209050919050565b60006020601f8301049050919050565b600082821b905092915050565b6000600883026111d27fffffffffffffffffffffffffffffffffffffffffffffffffffffffffffffffff82611195565b6111dc8683611195565b95508019841693508086168417925050509392505050565b6000819050919050565b6000819050919050565b600061122361121e611219846111f4565b6111fe565b6111f4565b9050919050565b6000819050919050565b61123d83611208565b6112516112498261122a565b8484546111a2565b825550505050565b600090565b611266611259565b611271818484611234565b505050565b5b818110156112955761128a60008261125e565b600181019050611277565b5050565b601f8211156112da576112ab81611170565b6112b484611185565b810160208510156112c3578190505b6112d76112cf85611185565b830182611276565b50505b505050565b600082821c905092915050565b60006112fd600019846008026112df565b1980831691505092915050565b600061131683836112ec565b9150826002028217905092915050565b61132f82610e1f565b67ffffffffffffffff811115611348576113476109ed565b5b61135282546110ad565b61135d828285611299565b600060209050601f831160018114611390576000841561137e578287015190505b611388858261130a565b8655506113f0565b601f19841661139e86611170565b60005b828110156113c6578489015182556001820191506020850194506020810190506113a1565b868310156113e357848901516113df601f8916826112ec565b8355505b6001600288020188555050505b505050505050565b600060208201905081810360008301526114128184610e65565b90509291505056fea264697066735822122058c829a3789ce50932f5b321fdabae5bc9926af7e171c8aaaa55c0fa7ec3a5cc64736f6c634300081b0033",
  "linkReferences": {},
  "deployedLinkReferences": {}
}